{
  "contractName": "divvyContract",
  "abi": [
    {
      "constant": true,
      "inputs": [
        {
          "name": "",
          "type": "address"
        }
      ],
      "name": "awaitingContributors",
      "outputs": [
        {
          "name": "",
          "type": "bool"
        }
      ],
      "payable": false,
      "stateMutability": "view",
      "type": "function",
      "signature": "0xe63ab554"
    },
    {
      "inputs": [
        {
          "name": "_manufacturer",
          "type": "address"
        },
        {
          "name": "_shipment",
          "type": "address"
        },
        {
          "name": "_ethPerUser",
          "type": "uint256"
        },
        {
          "name": "_desiredCount",
          "type": "uint256"
        },
        {
          "name": "_productCost",
          "type": "uint256"
        },
        {
          "name": "_shippingCost",
          "type": "uint256"
        },
        {
          "name": "_durationInHours",
          "type": "uint256"
        },
        {
          "name": "_contributors",
          "type": "address[]"
        }
      ],
      "payable": false,
      "stateMutability": "nonpayable",
      "type": "constructor",
      "signature": "constructor"
    },
    {
      "anonymous": false,
      "inputs": [
        {
          "indexed": false,
          "name": "_who",
          "type": "address"
        },
        {
          "indexed": false,
          "name": "_amount",
          "type": "uint256"
        },
        {
          "indexed": false,
          "name": "_timestamp",
          "type": "uint256"
        }
      ],
      "name": "NewFunds",
      "type": "event",
      "signature": "0x636610a1fad8f39e310814741dc249b5790cf9cb9af9f748b34e92f2e2dec66b"
    },
    {
      "anonymous": false,
      "inputs": [
        {
          "indexed": false,
          "name": "_who",
          "type": "address"
        },
        {
          "indexed": false,
          "name": "_amount",
          "type": "uint256"
        },
        {
          "indexed": false,
          "name": "_timestamp",
          "type": "uint256"
        }
      ],
      "name": "RefundIssued",
      "type": "event",
      "signature": "0x93c496f36ecab5f5583f216646cac3acb12a63aeacddb1a9251ceb81f0ee36e7"
    },
    {
      "anonymous": false,
      "inputs": [
        {
          "indexed": false,
          "name": "_beneficiary",
          "type": "address"
        },
        {
          "indexed": false,
          "name": "_amount",
          "type": "uint256"
        },
        {
          "indexed": false,
          "name": "_timestamp",
          "type": "uint256"
        }
      ],
      "name": "BeneficiaryPaid",
      "type": "event",
      "signature": "0xcf697c94590c2f173b390a916e925534cb47119cc2d836188ef88e1930ed4c39"
    },
    {
      "anonymous": false,
      "inputs": [
        {
          "indexed": false,
          "name": "_timestamp",
          "type": "uint256"
        }
      ],
      "name": "FundGoalReached",
      "type": "event",
      "signature": "0x7bce8f8935381daeeb440a263bb9daa75fd63951334109ec3ed16f1fc1c2b4a1"
    },
    {
      "anonymous": false,
      "inputs": [
        {
          "indexed": false,
          "name": "_timestamp",
          "type": "uint256"
        }
      ],
      "name": "OrderComplete",
      "type": "event",
      "signature": "0x18cc2626d53b298add3ec58253b2a64517d5ab3dca9c8eb4b078a2852705c3d8"
    },
    {
      "constant": false,
      "inputs": [],
      "name": "fund",
      "outputs": [],
      "payable": true,
      "stateMutability": "payable",
      "type": "function",
      "signature": "0xb60d4288"
    },
    {
      "constant": false,
      "inputs": [],
      "name": "payManufacturing",
      "outputs": [],
      "payable": false,
      "stateMutability": "nonpayable",
      "type": "function",
      "signature": "0x16a586f0"
    },
    {
      "constant": false,
      "inputs": [
        {
          "name": "receiver",
          "type": "address"
        }
      ],
      "name": "payShipping",
      "outputs": [],
      "payable": false,
      "stateMutability": "nonpayable",
      "type": "function",
      "signature": "0x9c1a2f46"
    },
    {
      "constant": false,
      "inputs": [],
      "name": "payUs",
      "outputs": [],
      "payable": false,
      "stateMutability": "nonpayable",
      "type": "function",
      "signature": "0x652049a4"
    },
    {
      "constant": false,
      "inputs": [],
      "name": "refund",
      "outputs": [],
      "payable": false,
      "stateMutability": "nonpayable",
      "type": "function",
      "signature": "0x590e1ae3"
    }
  ],
  "bytecode": "0x608060405273a31b3118497b0f7ea57521165953294df7c666486000806101000a81548173ffffffffffffffffffffffffffffffffffffffff021916908373ffffffffffffffffffffffffffffffffffffffff1602179055506000600860006101000a81548160ff0219169083151502179055506000600860016101000a81548160ff02191690831515021790555034801561009a57600080fd5b50604051610b81380380610b8183398101806040526101008110156100be57600080fd5b8101908080519060200190929190805190602001909291908051906020019092919080519060200190929190805190602001909291908051906020019092919080519060200190929190805164010000000081111561011c57600080fd5b8281019050602081018481111561013257600080fd5b815185602082028301116401000000008211171561014f57600080fd5b505092919050505087600160006101000a81548173ffffffffffffffffffffffffffffffffffffffff021916908373ffffffffffffffffffffffffffffffffffffffff16021790555086600260006101000a81548173ffffffffffffffffffffffffffffffffffffffff021916908373ffffffffffffffffffffffffffffffffffffffff160217905550670de0b6b3a7640000860260038190555084600481905550670de0b6b3a76400008402600581905550670de0b6b3a76400008302600681905550620151808202420160078190555060008090505b81518110156102ac57600160096000848481518110151561024457fe5b9060200190602002015173ffffffffffffffffffffffffffffffffffffffff1673ffffffffffffffffffffffffffffffffffffffff16815260200190815260200160002060006101000a81548160ff0219169083151502179055508080600101915050610227565b5050505050505050506108bd806102c46000396000f3fe608060405260043610610078576000357c0100000000000000000000000000000000000000000000000000000000900463ffffffff16806316a586f01461007d578063590e1ae314610094578063652049a4146100ab5780639c1a2f46146100c2578063b60d428814610113578063e63ab5541461011d575b600080fd5b34801561008957600080fd5b50610092610186565b005b3480156100a057600080fd5b506100a9610279565b005b3480156100b757600080fd5b506100c0610416565b005b3480156100ce57600080fd5b50610111600480360360208110156100e557600080fd5b81019080803573ffffffffffffffffffffffffffffffffffffffff1690602001909291905050506104df565b005b61011b6106a0565b005b34801561012957600080fd5b5061016c6004803603602081101561014057600080fd5b81019080803573ffffffffffffffffffffffffffffffffffffffff169060200190929190505050610871565b604051808215151515815260200191505060405180910390f35b600860009054906101000a900460ff1680156101af5750600860019054906101000a900460ff16155b80156102085750600160009054906101000a900473ffffffffffffffffffffffffffffffffffffffff1673ffffffffffffffffffffffffffffffffffffffff163373ffffffffffffffffffffffffffffffffffffffff16145b151561021357600080fd5b6001600860016101000a81548160ff0219169083151502179055503373ffffffffffffffffffffffffffffffffffffffff166108fc6005549081150290604051600060405180830381858888f19350505050158015610276573d6000803e3d6000fd5b50565b600754421180156102975750600860009054906101000a900460ff16155b80156102f3575060011515600960003373ffffffffffffffffffffffffffffffffffffffff1673ffffffffffffffffffffffffffffffffffffffff16815260200190815260200160002060009054906101000a900460ff161515145b15156102fe57600080fd5b6000600960003373ffffffffffffffffffffffffffffffffffffffff1673ffffffffffffffffffffffffffffffffffffffff16815260200190815260200160002060006101000a81548160ff0219169083151502179055503373ffffffffffffffffffffffffffffffffffffffff166108fc6003549081150290604051600060405180830381858888f1935050505015801561039e573d6000803e3d6000fd5b507f93c496f36ecab5f5583f216646cac3acb12a63aeacddb1a9251ceb81f0ee36e73360035442604051808473ffffffffffffffffffffffffffffffffffffffff1673ffffffffffffffffffffffffffffffffffffffff168152602001838152602001828152602001935050505060405180910390a1565b6000809054906101000a900473ffffffffffffffffffffffffffffffffffffffff1673ffffffffffffffffffffffffffffffffffffffff163373ffffffffffffffffffffffffffffffffffffffff1614801561047457506000600454145b151561047f57600080fd5b3373ffffffffffffffffffffffffffffffffffffffff166108fc3073ffffffffffffffffffffffffffffffffffffffff16319081150290604051600060405180830381858888f193505050501580156104dc573d6000803e3d6000fd5b50565b600960008273ffffffffffffffffffffffffffffffffffffffff1673ffffffffffffffffffffffffffffffffffffffff16815260200190815260200160002060009054906101000a900460ff1680156105445750600860009054906101000a900460ff165b801561059d5750600260009054906101000a900473ffffffffffffffffffffffffffffffffffffffff1673ffffffffffffffffffffffffffffffffffffffff163373ffffffffffffffffffffffffffffffffffffffff16145b15156105a857600080fd5b6000600960008373ffffffffffffffffffffffffffffffffffffffff1673ffffffffffffffffffffffffffffffffffffffff16815260200190815260200160002060006101000a81548160ff0219169083151502179055503373ffffffffffffffffffffffffffffffffffffffff166108fc6006549081150290604051600060405180830381858888f19350505050158015610648573d6000803e3d6000fd5b5060016004600082825403925050819055506000600454141561069d577f18cc2626d53b298add3ec58253b2a64517d5ab3dca9c8eb4b078a2852705c3d8426040518082815260200191505060405180910390a15b50565b600754421080156106b357506003543410155b80156106cc5750600860009054906101000a900460ff16155b80156107215750600960003373ffffffffffffffffffffffffffffffffffffffff1673ffffffffffffffffffffffffffffffffffffffff16815260200190815260200160002060009054906101000a900460ff165b151561072c57600080fd5b6000600960003373ffffffffffffffffffffffffffffffffffffffff1673ffffffffffffffffffffffffffffffffffffffff16815260200190815260200160002060006101000a81548160ff021916908315150217905550600454600354023073ffffffffffffffffffffffffffffffffffffffff163114156107fc576001600860006101000a81548160ff0219169083151502179055507f7bce8f8935381daeeb440a263bb9daa75fd63951334109ec3ed16f1fc1c2b4a1426040518082815260200191505060405180910390a15b7f636610a1fad8f39e310814741dc249b5790cf9cb9af9f748b34e92f2e2dec66b333442604051808473ffffffffffffffffffffffffffffffffffffffff1673ffffffffffffffffffffffffffffffffffffffff168152602001838152602001828152602001935050505060405180910390a1565b60096020528060005260406000206000915054906101000a900460ff168156fea165627a7a72305820d04b578f49efc0b40b394071a1031ec20c4611227f1786021ddaf34dbfe72db30029",
  "source": "pragma solidity >=0.4.21 <0.6.0;\n\ncontract divvyContract {\n    address payable us = 0xA31b3118497b0F7ea57521165953294dF7C66648;\n    address payable manufacturer;\n    address payable shipment;\n\n    uint ethPerUser;\n    uint totalUsers;\n\n    uint productCost;\n    uint shippingCost;\n\n    uint deadline;\n    bool funded = false;\n    bool manuPaid = false;\n\n    mapping (address => bool) public awaitingContributors;\n\n    event NewFunds(address _who, uint _amount, uint _timestamp);\n    event RefundIssued(address _who, uint _amount, uint _timestamp);\n    event BeneficiaryPaid(address _beneficiary, uint _amount, uint _timestamp);\n    event FundGoalReached(uint _timestamp);\n    event OrderComplete(uint _timestamp);\n\n    constructor(address payable _manufacturer, address payable _shipment,\n    uint _ethPerUser, uint _desiredCount, uint _productCost,uint _shippingCost,\n    uint _durationInHours,\n    address [] memory _contributors) public {\n        manufacturer = _manufacturer;\n        shipment = _shipment;\n\n        ethPerUser = _ethPerUser * 1 ether;\n        totalUsers = _desiredCount;\n\n        productCost = _productCost * 1 ether;\n        shippingCost = _shippingCost * 1 ether;\n\n        deadline = now + (_durationInHours * 24 hours);\n\n        for (uint i = 0; i < _contributors.length; i++) {\n            awaitingContributors[_contributors[i]] = true;\n        }\n    }\n\n    function fund() public payable {\n        require(now < deadline && msg.value >= ethPerUser && !funded && awaitingContributors[msg.sender]);\n        awaitingContributors[msg.sender] = false;\n        if (address(this).balance == ethPerUser * totalUsers) {\n            funded = true;\n            emit FundGoalReached(now);\n        }\n        emit NewFunds(msg.sender, msg.value, now);\n    }\n\n    function payManufacturing() public {\n        require(funded && !manuPaid &&\n                msg.sender == manufacturer\n                );\n        manuPaid = true;\n        msg.sender.transfer(productCost);\n    }\n\n    function payShipping(address receiver) public {\n        require (awaitingContributors[receiver] && funded &&\n                 msg.sender == shipment\n                 );\n                 //user received package at this point\n        awaitingContributors[receiver] = false;\n        msg.sender.transfer(shippingCost);\n        totalUsers -= 1;\n        if (totalUsers == 0) {\n            emit OrderComplete(now);\n        }\n    }\n\n    function payUs() public {\n        require (msg.sender == us && totalUsers == 0);\n        msg.sender.transfer(address(this).balance);\n    }\n\n    function refund() public {\n        require(now > deadline && !funded &&\n                awaitingContributors[msg.sender] == true\n                );\n\n        awaitingContributors[msg.sender] = false;\n        msg.sender.transfer(ethPerUser);\n        emit RefundIssued(msg.sender, ethPerUser, now);\n    }\n}\n",
  "sourcePath": "/Users/bobbywang/Desktop/DivvyBlock/contracts/divvyContract.sol",
  "compiler": {
    "name": "solc",
    "version": "0.5.0+commit.1d4f565a.Emscripten.clang"
  },
  "schemaVersion": "3.0.1",
  "updatedAt": "2019-01-19T17:34:05.831Z",
  "devdoc": {
    "methods": {}
  },
  "userdoc": {
    "methods": {}
  }
}